S011000055706C696E6B5F76322E7372656399
S113000012C02CC02BC02AC029C028C027C026C0BB
S113001025C024C023C022C021C020C01FC01EC0D0
S11300201DC01CC01BC011241FBECFE5D4E0DEBF21
S1130030CDBF10E0A0E6B0E0ECE6F4E002C005902D
S11300400D92A637B107D9F721E0A6E7B0E001C0C9
S11300501D92A030B207E1F7F4D106C2D1CF1BB88C
S11300601AB810BC599A8AB188618AB980B5866871
S113007080BD87E689B910BC08955D9BFECF8CB91D
S113008008957FEF760F662319F1E82FF92F8FEF8C
S11300909FEF21912927322F32953F70232730E09B
S11300A0982F882782279327A901542F44275295F4
S11300B0507F84279527220F331F22953295307F56
S11300C03227207F322782279327715010F7089513
S11300D08FEF9FEF089581E084BB85BB8F9A979A39
S11300E0BEDFBC98BD9ABB9ABA9AB89883E58DB91D
S11300F01EB8C29AC398C59A0895C298B499FECFFF
S113010080688FB9779BFECF8FB11FB8779BFECFE6
S11301108FB1C29A0895C298B499FECF8FB9779BD4
S1130120FECF8FB16FB9779BFECF8FB1C29A08957E
S1130130C298B499FECF8FB9779BFECF8FB1C29A84
S11301400895C298B499FECF806C8FB9779BFECF87
S11301508FB14115510559F0FB01460F571F1FB8C8
S1130160779BFECF8FB18193E417F507C1F7C29A4D
S11301700895C298B499FECF80648FB9779BFECF5F
S11301808FB14115510551F0FB01460F571F819165
S11301908FB9779BFECFE417F507C9F7C29A089584
S11301A0C29A82E08A95F1F700C0C29882E08A95EB
S11301B0F1F700C0C29A8DE68A95F1F70000C29863
S11301C0B499FECF85E88A95F1F7000080E38FB9F2
S11301D0779BFECF8FB1B499FECF85E88A95F1F76E
S11301E00000C29A0895CF93DF93EC01688182E006
S11301F092DF82E082DF698183E08DDF83E07DDF4F
S11302006A8188E088DF88E078DF6B818BE083DFB8
S11302108BE073DF6C818DE07EDF8DE06EDF6D81BE
S11302208EE079DF8EE069DF6E818FE074DF8FE02E
S113023064DF6F8180E16FDF80E15FDF688581E1EA
S11302406ADF81E15ADF698582E165DF82E155DF9A
S11302506A8585E160DF85E150DF6B8588E15BDFDE
S113026088E14BDF6C8589E156DF89E146DF6D85E6
S113027080E251DF80E241DF6E8583E24CDF83E27E
S11302803CDF6F8584E247DF84E237DF688985E2FB
S113029042DF85E232DF698986E23DDF86E22DDFD7
S11302A06A898CE238DF8CE228DF6B898DE233DFE8
S11302B08DE223DF6C898EE22EDF8EE21EDFDF917A
S11302C0CF910895CF93DF93CDB7DEB7A8970FB63C
S11302D0F894DEBF0FBECDBF1092760086E328DF10
S11302E041E050E060E670E08EE343DF8FEC97E09E
S11302F00197F1F700C000008AE31ADF84E318DFF6
S11303008E010B5D1F4F0F2EF6EBEF2EF0E0FF2E4C
S1130310F02D0F2EF3ECCF2EF0E0DF2EF02D0F2E6C
S1130320F2EC8F2EF0E09F2EF02D8BEFE6DEB09BEB
S1130330FCCFB099FECF8BEFE0DE47E250E0BE0188
S11303406F5F7F4F8FE3FDDE8AE3F2DE84E3F0DE4E
S11303508A81813409F062C08B81813409F05EC0E6
S1130360FE017996D70181918D93E017F107D9F7B2
S1130370F601108263E2CE01029683DE9093B5000B
S11303808093B4008FE097E20197F1F700C000007A
S11303908091B4009091B5008093B3009093FF00D6
S11303A06CDE8091FF0069DEEFE1FEE43197F1F746
S11303B000C000008FE097E20197F1F700C0000051
S11303C08DA15BDE8EA159DEEFE1FEE43197F1F7FA
S11303D000C000009DA18091B30098131FC09EA18E
S11303E08091FF0098131AC08FE097E20197F1F70C
S11303F000C00000EFE0F7E23197F1F700C0000021
S11304005701F50181915F0138DEA814B904C9F7D9
S11304108FE097E20197F1F700C0000086E388DEE1
S113042041E050E060E670E08EE3A3DEEFECF7E03D
S11304303197F1F700C000008AE37ADE84E378DEC6
S113044074CFF89448DE78942FEF83ED90E3215035
S113045080409040E1F700C00000A2DE81E690E019
S10F0460C2DE81EF4ADE2EDFF894FFCFED
S113046C60064F050610B13BF98313151816FBE90A
S109047C2A001F8135096E
S9030000FC
