:1000000045C0000060C000005EC000005CC0000091
:100010005AC0000058C0000056C0000054C0000084
:1000200052C0000050C000004EC000004CC0000094
:100030004AC0000048C0000046C0000044C00000A4
:1000400042C000006CC400003EC000003CC0000084
:100050003AC0000038C0000036C0000034C00000C4
:1000600032C0000030C000002EC000002CC00000D4
:100070002AC0000028C0000026C0000024C00000E4
:1000800022C0000020C000001EC0000011241FBEBE
:10009000CFEFD0E1DEBFCDBF11E0A0E0B1E0EAEBF1
:1000A000FDE000E00BBF02C007900D92AE31B1073A
:1000B000D9F721E0AEE1B1E001C01D92A834B2074A
:1000C000E1F71BD578C69CCF87B3807F87BBBB9AEF
:1000D0008CEC8DB908957FEF760F662319F1E82F28
:1000E000F92F8FEF9FEF21912927322F32953F7003
:1000F000232730E0982F882782279327A901542FA0
:1001000044275295507F84279527220F331F22952D
:100110003295307F3227207F3227822793277150F4
:1001200010F708958FEF9FEF0895CF92DF92EF922F
:10013000FF920F931F93CF93DF93CDB7DEB7C055D8
:10014000D1090FB6F894DEBF0FBECDBF7C018EE79C
:10015000F70181936F0186E0E9E0F1E09E012F5FF6
:100160003F4FD90101900D928A95E1F7522F432F0D
:10017000F601CE010796D9012D912193A817B90751
:10018000D9F720E6F701278326E0E0E1F1E0DE0180
:10019000119601900D922A95E1F7D7011896E52F57
:1001A000F42F21912D93E817F907D9F728E6F701E5
:1001B000268726E0E7E1F1E0DE01119601900D923D
:1001C0002A95E1F7D7011F96E52FF42F21912D9362
:1001D000E817F907D9F781E6F701858B83E0868B6D
:1001E00080EF878B4091070150910801CE01019665
:1001F000D9D5009107011091080110161106C4F419
:1002000020E030E080E0F701E20FF31FA1E0B0E072
:10021000AC0FBD1FA20FB31F9C91908F8F5F282F33
:1002200030E00091070110910801201731075CF3BD
:1002300018E1100F67E1600FC6014DDF89839A83D3
:10024000F701E10FF11D80839183065EF701E00F56
:10025000F11D8EE78083C05BDF4F0FB6F894DEBFE1
:100260000FBECDBFDF91CF911F910F91FF90EF9007
:10027000DF90CF9008951BB81AB8E5E9F0E010823E
:10028000599A8AB188618AB980818E60808387E6B5
:1002900089B9109290000895CF93DF93CBE9D0E015
:1002A0001882AAE9B0E01C92EDE9F0E010828881A2
:1002B000826088838C9180618C9380818E60808342
:1002C00087E68093990010929800DF91CF9108956E
:1002D000EBE9F0E0908195FFFDCF80939C000895BD
:1002E0005D9BFECF8CB90895AF92BF92CF92DF9203
:1002F000EF92FF920F931F93CF93DF9361157105D8
:1003000011E08107910538F00197E0910601E8605E
:10031000E093060105C0E0910601E77FE093060146
:10032000F0900601B72E0F2EF8ECCF2EF02DE4E75B
:10033000F0E00F2EF4EADF2EF02DA1E7B0E00D2D56
:10034000C3E7D0E01F2D1160A12E03C0CA9409F4A9
:10035000BAC00F2EF4E8EF2EF02D00831081112388
:10036000ECF71C91187F10934701103129F01833D6
:10037000A1F3183009F0AAC0F882E082108111239D
:10038000ECF71C91187F109347011032F9F21833E3
:1003900021F3183109F07DC0B882E0821081112369
:1003A000ECF71C91187F109347011033B1F218330A
:1003B000A1F2183209F070C06883E0821081112325
:1003C000ECF71C91187F10934701103331F018336C
:1003D00021F2183209F063C003C020E030E06DC0A4
:1003E000D08210811123ECF71C91187F10934701E4
:1003F000103131F0183309F4B0CF183009F052C081
:10040000A882E08210811123ECF71C91187F1093D1
:100410004701103449F0183421F0183309F045C071
:100420009CCF20E030E049C0141615060CF040C007
:10043000822F932F20E030E004EC0F2EF4E8FF2E03
:10044000F02DA4E7B0E061E770E00F2EF3E7CF2EC8
:10045000D12CF02DFC014130510509F40F2D0C93E6
:100460001C911123ECF7EB011881187F10934701C1
:10047000103519F0183569F11EC0E6011881108396
:1004800001962F5F3F4F415051094115510511F71A
:1004900014C02FEF3FEF11C02FEF3FEF0EC02FEF33
:1004A0003FEF0BC02FEF3FEF08C02FEF3FEF05C02E
:1004B00020E030E002C02FEF3FEF84E9809374002A
:1004C000822F932F0CC08FEF9FEF09C08FEF9FEF0C
:1004D00006C08091730080832F5F3F4FEECFDF9186
:1004E000CF911F910F91FF90EF90DF90CF90BF9031
:1004F000AF900895CF92DF92EF92FF920F931F93E8
:10050000CF93DF93EA0189016115710521E082072C
:10051000910510F56A01EE24D7FCE094FE2CC60E7E
:10052000D71EE81EF91E21E0C216D104E206F1042E
:1005300098F0EE24FF24E61AF70A9801A701D4DE0A
:1005400098012E0D3F1DAE014E195F0960E070E06D
:1005500081E090E0C9DE03C09801AE01C5DEDF9105
:10056000CF911F910F91FF90EF90DF90CF90089562
:10057000AF92BF92CF92DF92EF92FF920F931F93B1
:10058000CF93DF93B22EA32E6115710521E0820770
:10059000910538F00197209106012860209306010B
:1005A00005C020910601277F209306016A01EE24F1
:1005B000D7FCE094FE2CC60ED71EE81EF91E8B0158
:1005C0009C010F67C016D106E206F30618F4460F29
:1005D000571F04C0AB014F674F5F5F4F009106018B
:1005E000E72E0F2EF8ECFF2EF02DE4E7F0E0A1E768
:1005F000B0E034EAC3E7D0E014E803C0FA9409F4A9
:100600007DC0308320812223ECF72C91287F20931A
:100610004701203129F02833A1F3283009F071C0B7
:100620000883108320812223ECF72C91287F2093CC
:100630004701203219F3283321F3283109F04AC049
:10064000E882108320812223ECF72C91287F2093CD
:100650004701203329F02833A1F22832F1F503C0F5
:1006600020E030E045C06883108320812223ECF72E
:100670002C91287F20934701203329F0283309F259
:10068000283271F503C020E030E032C0461B570B22
:100690001416150644F5AB2DBA2D20E030E083E7A3
:1006A00090E0E4E7F0E074E801E710E06D91EC0120
:1006B0006883708360816623ECF7E8016881687F56
:1006C00060934701683291F42F5F3F4F4217530701
:1006D00069F70EC02FEF3FEF0BC02FEF3FEF08C0C1
:1006E0002FEF3FEF05C020E030E002C02FEF3FEFDB
:1006F00084E980937400822F932F05C08FEF9FEFC2
:1007000002C08FEF9FEFDF91CF911F910F91FF906C
:10071000EF90DF90CF90BF90AF900895AF92BF92CF
:10072000CF92DF92EF92FF920F931F93CF93DF93BD
:100730006B017C01EA018901A12CB12C9801AE0169
:10074000C701B60115DF8F3F2FEF920799F0AC017B
:10075000662757FD6095762FC40ED51EE61EF71E40
:10076000C81BD90B080F191FA80EB91E1C161D0691
:100770002CF303C08FEF9FEF02C08A2D9B2DDF91DA
:10078000CF911F910F91FF90EF90DF90CF90BF908E
:10079000AF90089581309105C1F01CF4892B39F098
:1007A0003EC082309105F9F0039759F138C080E6D8
:1007B00087B985EC86B98FE19EE40197F1F700C017
:1007C00000003699FECF85B1089581E687B985ECA2
:1007D00086B98FE19EE40197F1F700C000003699D9
:1007E000FECF85B1089582E687B985EC86B98FE1A1
:1007F0009EE40197F1F700C000003699FECF85B165
:10080000089583E687B985EC86B98FE19EE4019768
:10081000F1F700C000003699FECF85B10895089524
:10082000CF92DF92EF92FF92CF93DF93EB01C090D4
:100830002501D0902601E0902701F09028019C012D
:10084000AB01C701B6016ADFAE01662757FD6095AF
:10085000762FC40ED51EE61EF71E4C0D5D1D6E1DB7
:100860007F1D413051056240710548F4C092250159
:10087000D0922601E0922701F092280108C0109240
:10088000250110922601109227011092280181E083
:1008900080931E01DF91CF91FF90EF90DF90CF907A
:1008A0000895CF92DF92EF92FF92C0902901D090ED
:1008B0002A01E0902B01F0902C0140910001509111
:1008C00001019C01C701B60115DE809100019091E4
:1008D0000101AA2797FDA095BA2FC80ED91EEA1EBE
:1008E000FB1E8C0D9D1DAE1DBF1D0197A240B105C5
:1008F00048F4C0922901D0922A01E0922B01F09293
:100900002C0108C01092290110922A0110922B018B
:1009100010922C01FF90EF90DF90CF9008951F92DE
:100920000F920FB60F9211240BB60F922F933F9395
:100930004F935F936F937F938F939F93AF93BF93E7
:10094000CF93EF93FF93CFB18C2FCADCE0912D01B1
:10095000F0E0E55CFE4FC08380911F019091200183
:10096000019731F482E090E09093200180931F0181
:1009700080913B01813F09F069C080913C01813F3A
:1009800009F064C080913D01813F09F05FC043C020
:10099000FC01E55CFE4F108201968C309105C1F799
:1009A00010922D0196C080913C01813E09F068C0F3
:1009B00080913D01813E09F063C04DC0FC01E55CC2
:1009C000FE4F108201968C309105C1F710922D01D7
:1009D00080C080913C01813D09F057C080913D016C
:1009E000813D09F052C05EC0FC01E55CFE4F108203
:1009F00001968C309105C1F710922D016AC01092BA
:100A00002D0181E080932E0164C080912D018F5FC4
:100A100080932D015EC0109205011092040181E0C7
:100A200090E0909324018093230110922201109270
:100A300021012CE030E030930301209302019093D8
:100A4000200180931F0180E090E0A2CF80913B01C4
:100A5000813EB1F4A8CF10920501109204011092CA
:100A600024011092230181E090E090932201809371
:100A700021011092200110921F0180E090E09ECF92
:100A800080913B01813D09F4A4CF20912D018091FB
:100A900002019091030130E001972817390708F40B
:100AA000B4CFADCF81E090E0909305018093040135
:100AB0001092240110922301109222011092210120
:100AC00087E090E0909303018093020180E090E042
:100AD0008BCFFF91EF91CF91BF91AF919F918F916C
:100AE0007F916F915F914F913F912F910F900BBE2E
:100AF0000F900FBE0F901F901895CF93DF93CDB737
:100B0000DEB7C552D1400FB6F894DEBF0FBECDBFE1
:100B10008FE08ABB8BBB10926100ADDBBDDB88E14F
:100B20000FB6F89481BD11BC0FBECEDA78948091D7
:100B30000001909101012DB73EB7281B390B0FB66C
:100B4000F8943EBF0FBE2DBF8DB79EB701964C01E6
:100B50008AE08BBB0AE910E00F2EFFE26F2EF1E076
:100B60007F2EF02DAA24A394BA2CAC0EBD1E92E2C7
:100B7000A90EB11C80E090E00DDECE5DDE4F8883D3
:100B8000C252D140E7ECF0E03197F1F700C000002D
:100B900081E090E0FFDDCD5DDE4F8883C352D14020
:100BA00087EC90E00197F1F700C0000082E090E050
:100BB000F1DDCC5DDE4F8883C452D140E7ECF0E03C
:100BC0003197F1F700C0000083E090E0E3DDCB5DFA
:100BD000DE4F8883C552D14087EC90E00197F1F752
:100BE00000C000008091040190910501019709F077
:100BF0004DC080912E01813009F0BCCF9FEFE3EC16
:100C0000F9E09150E040F040E1F700C0000067E0FB
:100C100070E08BE391E004DE64E070E0CE018E5D75
:100C20009E4FFEDD81E65CDB82E65ADBCE5DDE4F69
:100C30008881C252D14054DB83E652DB84E650DB2C
:100C4000CD5DDE4F8881C352D1404ADB85E648DB6B
:100C500086E646DBCC5DDE4F8881C452D14040DB66
:100C600087E63EDB88E63CDBCB5DDE4F8881C55204
:100C7000D14036DB2FEF34E38CE021503040804010
:100C8000E1F700C0000010922E0174CF8091230183
:100C900090912401019709F074C080911F019091F7
:100CA00020010297D1F780912E01813071F4F30178
:100CB00080E090E0DC01A55CBE4F2C912193019671
:100CC0008C309105B9F710922E01C401EADD209114
:100CD0000001309101011216130664F4D401FE01E3
:100CE000EF5FFE4F80E090E04D91419301968217B7
:100CF0009307D4F32232310564F4D301E1E0F1E04B
:100D0000EC0FFD1FE20FF31F8D918193EA15FB0598
:100D1000D9F7BE016F5F7E4FCE01019606DA809152
:100D200000019091010187961816190604F5FE013D
:100D300031966F01E12CF12CF8018081886080836D
:100D4000F60181916F01C4DAF8018081877F808389
:100D5000F5E8FA95F1F700002FEFE21AF20A809118
:100D60000001909101018796E816F9062CF33FEFF8
:100D70008EE994E2315080409040E1F700C00000DD
:100D8000F9CE8091210190912201019709F0F2CED4
:100D9000EFEFF8EF25E1E150F0402040E1F700C02F
:100DA0000000E8CEFB01DC0102C001900D92415031
:0A0DB0005040D8F70895F894FFCFE3
:100DBA00160007000100A62200435120202020002F
:0E0DCA00565532444D510052454C41592000BF
:00000001FF
