:100000000C9473000C942F020C9490000C949000AC
:100010000C9490000C9490000C9490000C94900020
:100020000C9490000C9490000C9490000C94900010
:100030000C9490000C9454020C9490000C9490003A
:100040000C9490000C9490000C9490000C94BA01C5
:100050000C949000D9011B021B021B021B021B0205
:100060001B021B02D9011B021B021B021B021B02EB
:100070001B021B02D9011B021B021B021B021B02DB
:100080001B021B02D9011B021B021B021B021B02CB
:100090001B021B020C021B021B021B021B021B0287
:1000A0001B021B021B021B021B021B021B021B0268
:1000B0001B021B020C021B021B021B021B021B0267
:1000C0001B021B021B021B021B021B021B021B0248
:1000D0001B021B0218021B021B021B021B021B023B
:1000E0001B021B02DD0111241FBECFE5D8E0DEBFDD
:1000F000CDBF10E0A0E6B0E0EEEDF7E002C0059065
:100100000D92A837B107D9F720E0A8E7B0E001C009
:100110001D92AF38B207E1F70E947A020C94ED030A
:100120000C9400001BB81AB810BC599A549A80B5A8
:10013000866080BD87E689B910BC08955F9BFECFBD
:100140008CB108951F93CF93DF93CDB7DEB764973B
:100150000FB6F894DEBF0FBECDBF8CB18B3601F564
:1001600010E008C0E1E0F0E0EC0FFD1FE10FF11D31
:1001700080831F5F0E949E008D36A1F7E1E0F0E0D2
:10018000EC0FFD1FE10FF11D108262E670E0CE0161
:1001900001960E94D30321E0892B31F520E024C091
:1001A0008237F9F410E008C0E1E0F0E0EC0FFD1F49
:1001B000E10FF11D80831F5F0E949E008D36A1F725
:1001C000E1E0F0E0EC0FFD1FE10FF11D10826CE6A5
:1001D00070E0CE0101960E94D303892B21F022E02A
:1001E00003C020E001C020E0822F64960FB6F8948F
:1001F000DEBF0FBECDBFDF91CF911F91089580EC80
:100200008BBB81E088BB15BA80E882BB80938600F7
:10021000089580EC8BBB18BA15BA82BB1092860089
:10022000089580918D0090918E0087FF03C0C09A41
:10023000969802C0C098969A80918D0090918E00F9
:1002400086FF03C0949A979802C09498979A8091D9
:100250008D0090918E0085FF03C0AF9ADE9802C09A
:10026000AF98DE9A80918D0090918E0084FF03C03C
:10027000C29A969801C0C29880918D0090918E008C
:1002800083FF03C0AA9ADF9802C0AA98DF9A8091E0
:100290008D0090918E0082FF02C0C39A01C0C39866
:1002A00080918D0090918E0081FF02C0AE9A01C0B6
:1002B000AE9880918D0090918E0080938600089575
:1002C0008330910549F134F48130910549F002976A
:1002D000A9F04CC08430910569F10597C9F146C079
:1002E00081E687B985EC86B98FE19EE40197F1F745
:1002F00000C000003699FECF85B1089583E687B926
:1003000085EC86B98FE19EE40197F1F700C000000B
:100310003699FECF85B1089584E687B985EC86B914
:100320008FE19EE40197F1F700C000003699FECFFF
:1003300085B1089580E687B985EC86B98FE19EE4A2
:100340000197F1F700C000003699FECF85B10895FE
:1003500082E687B985EC86B98FE19EE40197F1F7D3
:1003600000C000003699FECF85B108950895AA9A7D
:10037000DF9808951F920F920FB60F9211242F93BA
:100380003F934F935F936F937F938F939F93AF931D
:10039000BF93EF93FF9381B1887F90E0FC01E0561B
:1003A000F109E934F10508F046C0E65DFF4F0C9411
:1003B000B90386B7806C86BF3EC0E0917800F0E05C
:1003C000EA57FF4F808183B986B7846C86BF8091DE
:1003D00078008F5F8093780080917800873059F59E
:1003E0001092780080916000909161000196909346
:1003F0006100809360008091790090917A001816D6
:100400001906CCF48091790090917A00019690932E
:100410007A00809379000FC083B190E090938E00B2
:1004200080938D000E94110186B7806C86BF03C047
:1004300086B7856C86BF86B7856C86BFFF91EF91C6
:10044000BF91AF919F918F917F916F915F914F91EC
:100450003F912F910F900FBE0F901F9018951F92F4
:100460000F920FB60F9211242F933F934F938F93B8
:100470009F938BB78F7B8BBF8AE090E02FEF39E69D
:1004800048E1215030404040E1F700C000000197B2
:100490000097A1F79F918F914F913F912F910F90CE
:1004A0000FBE0F901F9018951F920F920FB60F92CC
:1004B00011242F933F934F935F936F937F938F9369
:1004C0009F93AF93BF93EF93FF930E94A2008093FB
:1004D0007D00FF91EF91BF91AF919F918F917F919F
:1004E0006F915F914F913F912F910F900FBE0F90A1
:1004F0001F90189580EC8ABB87B38D6087BB84B34F
:10050000846C84BB81B3806D81BB0E94920087E6BE
:1005100089B9579A80E282B986B7856C86BF0E94F6
:10052000090180E48BBF85B78F78806285BF80EA40
:1005300085BF789485B7806885BF85B7806885BF9B
:10054000889585B78F7785BF85B78F7785BF2FEF64
:1005500080E792E0215080409040E1F700C0000029
:100560008BB78F7B8BBF0E94B701EFEFF9E628E1D5
:10057000E150F0402040E1F700C0000001E010E051
:100580000F2EFFE0CF2ED12CF02D0F2EFCE8EF2EFA
:10059000F0E0FF2EF02DC7E8D0E0312C5524539425
:1005A000432C0F2EF6E8AF2EF0E0BF2EF02D0F2ECD
:1005B000F8E88F2EF0E09F2EF02D80917D008130A5
:1005C00021F40E940901F894F8CF80917D008230D7
:1005D00009F0B9C0F50110821882F4011082E9E82F
:1005E000F0E01082EAE8F0E0108210928B001093A5
:1005F0007A00009379008091790090917A000797B2
:10060000D1F7FFEF29E688E1F15020408040E1F783
:1006100000C00000F8940E94090110927A00109224
:1006200079009FEFE1E1FAE79150E040F040E1F717
:1006300000C000000E94B7012FEF81E19AE721502E
:1006400080409040E1F700C0000030927D00789437
:100650007AC0C3010E946001F301EA57FF4F808313
:10066000EFEF6E1A7E0AF6E06F16710491F720B371
:10067000287020938000F6B3F270F0938300E0B30B
:10068000E072E0937E0043B348704093850033B33B
:100690003071309384008091600090916100B601C8
:1006A0000E94A503892B21F488E1F70180830DC006
:1006B000F295FF0FFF0FF07CEE0FEF2B4E2B330F59
:1006C000432B220F242BF7012083F701808183FD28
:1006D00003C0AA98DF9A02C0AA9ADF98C8010E94B4
:1006E000600180938100888328819881852D9439C9
:1006F00008F4842D882369F0852D223A08F0842D92
:10070000882339F00E94FF0010937C0000937B0047
:1007100009C08881833930F40E94090110937C005C
:1007200000937B008881823AC8F280917B0090918F
:100730007C00019709F041CF0E94B70110927C0024
:1007400010927B003ACF380184CF97FB072E16F426
:10075000009407D077FD09D00E94BF0307FC05D0A5
:100760003EF4909581959F4F0895709561957F4FC8
:100770000895EE0FFF1F0590F491E02D0994AA1B38
:10078000BB1B51E107C0AA1FBB1FA617B70710F07C
:10079000A61BB70B881F991F5A95A9F780959095AE
:1007A000BC01CD010895FB0151915523A9F0BF0172
:1007B000DC014D9145174111E1F759F4CD0101904C
:1007C000002049F04D9140154111C9F3FB01411141
:0E07D000EFCF81E090E001970895F894FFCFFD
:1007DE000100696C6C707261746861006573657498
:0807EE00707261746861000083
:00000001FF
