S01100004D61737465724F42432E73726563D3
S113000045C0000060C000005EC000005CC000008D
S11300105AC0000058C0000056C0000054C0000080
S113002052C0000050C000004EC000004CC0000090
S11300304AC0000048C0000046C0000044C00000A0
S113004042C0000040C0000058C100003CC0000095
S11300503AC0000038C0000036C0000034C00000C0
S113006032C0000030C000002EC000002CC00000D0
S11300702AC0000028C00000F1C1000024C0000014
S113008022C0000020C000001EC0000011241FBEBA
S1130090CFEFD0E1DEBFCDBF11E0A0E0B1E0E8E9F1
S11300A0F0E100E00BBF02C007900D92A433B1074A
S11300B0D9F721E0A4E3B1E001C01D92A73BB20748
S11300C0E1F701D2E7C79CCFCF93DF93CBE9D0E030
S11300D01882AAE9B0E01C92EDE9F0E01082888170
S11300E0826088838C9188698C9380818660808308
S11300F087E68093990010929800DF91CF9108953C
S1130100CF93DF93FC012081222369F0DC01119657
S1130110EBE9F0E0CCE9D0E0808185FFFDCF2883D6
S11301202D912111F9CFDF91CF91089517BA86E06F
S113013087BB87B3816387BB88B3806388BBC09860
S11301408FE58DB908958FB9779BFECF8FB1089550
S1130150CF93C92F77D78C2F75D7CF91089510924D
S11301607100109274008CE080937000089584EA0A
S113017080937400E4E7F0E080818823ECF7E1E702
S1130180F0E08081887F8830E1F7089580937300E0
S113019084E880937400A4E7B0E0E1E7F0E004C0F1
S11301A08081887F8831E1F78C918823CCF708958A
S11301B08093730084E880937400E4E7F0E0808126
S11301C08823ECF7E1E7F0E08081887F8034E1F771
S11301D008958093730084E880937400E4E7F0E06A
S11301E080818823ECF7E1E7F0E08081887F883222
S11301F0E1F7089584E880937400E4E7F0E08081F7
S11302008823ECF7E1E7F0E08081887F8835E1F727
S1130210209173002093AD0180910F019091100102
S113022060910D0170910E0121D7892B11F4822F59
S113023009C7089584E980937400E4E7F0E08081BD
S113024084FFFDCF0895C4D61092940182E190E812
S113025090938F0180938E01109295019093910158
S11302608093900110929601909393018093920150
S113027081C60895ADD61092940182E190E89093DE
S11302808F0180938E011092950190939101809338
S113029090011092960190939301809392016AC603
S11302A0089596D61092940110928F0110928E01A7
S11302B01092950110929101109290011092960162
S11302C080E090E8909393018093920153C608953F
S11302D07FD61092940110928F0110928E01109289
S11302E09501109291011092900110929601109232
S11302F09301109292013EC608951F920F920FB679
S11303000F9211240BB60F922F933F934F935F9349
S11303106F937F938F939F93AF93BF93EF93FF93C9
S11303208CB18093AE018091AE018A32E1F481E117
S11303308BBB2FEF81E19AE7215080409040E1F799
S113034000C0000081E090E090933A01809339016D
S113035090933E0180933D0110923C0110923B0129
S11303601092340168C08091AE01863279F58CEC2C
S11303708BBB2FEF81E19AE7215080409040E1F759
S113038000C0000083E090E021ED2FB9779BFECF01
S113039001970097D1F78AEA8BBBE9DE80EC8BBB2F
S11303A080911701F3DE80E68BBB8091150111DF8C
S11303B080EA8BBB3FDF10923A0110923901109210
S11303C0340110923E0110923D0135C08091AE017E
S11303D08E3591F48EEE8BBB2FEF81E19AE721509D
S11303E080409040E1F700C0000081E090E09093ED
S11303F03801809337011FC08091AE018832D9F44F
S11304001BBA2FEF81E19AE7215080409040E1F739
S113041000C0000081E08093340110923A011092F0
S1130420390181E090E090933E0180933D01109268
S11304303C0110923B01FF91EF91BF91AF919F91CD
S11304408F917F916F915F914F913F912F910F9079
S11304500BBE0F900FBE0F901F9018951F920F9216
S11304600FB60F9211240BB60F922F933F934F9315
S11304705F936F937F938F939F93AF93BF93EF9308
S1130480FF9320919C0080910F0190911001609145
S11304900D0170910E01EAD5892B11F4822FD2D56A
S11304A0FF91EF91BF91AF919F918F917F916F9148
S11304B05F914F913F912F910F900BBE0F900FBE04
S11304C00F901F90189532DEACD5FEDD2DD580EF50
S11304D08ABB87B3816287BB2FEF33ED80E3215062
S11304E030408040E1F700C0000080ED8BBB37DE78
S11304F09FEFA3EDB0E39150A040B040E1F700C0FE
S1130500000078940F2EF8E1EF2EF12CF02DC7EBBC
S1130510D1E000EB11E070D580913D0190913E0156
S1130520009709F041C28FE00FB6F894A895E1BC9A
S11305300FBE81BDA895C59AC098809115018D7E86
S1130540809315018AEA8BBB12DE80EC8BBB809111
S113055017011CDE80E68BBB809115013ADE80EA30
S11305608BBB68DE80910F019091100160910D01A9
S113057070910E017BD5892B19F488E191E06AD53D
S1130580EFE1FEE43197F1F700C000006801EFDD10
S11305909091160180911701890F0ADE2BDE80915C
S11305A0AD01D6018D936D0145DECC16DD0679F7DC
S11305B0EFE1FEE43197F1F700C00000F8019FEF8E
S11305C081918FB9779BFECF9BBBAFECB7E01197BE
S11305D0F1F700C00000EC17FD0791F7C09AC59829
S11305E0A8958091450190914601892B81F4E6EB11
S11305F0F1E0808188234CF181E090E09093460102
S113060080934501809115018F7780931501809126
S11306104501909146019C01215031092630310554
S113062028F40196909346018093450180914501F9
S113063090914601079749F41092460110924501A2
S113064080911501806880931501809143019091F8
S11306504401892B81F4A6EBB1E08C9186FD29C07D
S113066081E090E0909344018093430180911501CF
S11306708F7B8093150180914301909144019C01EB
S1130680215031092630310528F401969093440114
S1130690809343018091430190914401079749F469
S11306A0109244011092430180911501806480935B
S11306B015018091410190914201892B81F4E6EB6F
S11306C0F1E0808185FD29C081E090E090934201B2
S11306D080934101809115018F7D80931501809154
S11306E04101909142019C0121503109263031058C
S11306F028F4019690934201809341018091410135
S113070090914201079749F41092420110924101DD
S11307108091150180628093150180913F01909131
S11307204001892B81F4A6EBB1E08C9184FD29C0B2
S113073081E090E09093400180933F018091150106
S11307408F7E8093150180913F01909140019C011F
S1130750215031092630310528F401969093400147
S113076080933F0180913F0190914001079749F4A4
S11307701092400110923F01809115018061809395
S11307801501A895C09AC598EFECF7E03197F1F7F9
S113079000C000008FEFD7DC8FEC97E00197F1F7F2
S11307A000C000008FEF8BBBCEDC682EAFECB7E04F
S11307B01197F1F700C000008FEFC5DC582EEFEC65
S11307C0F7E03197F1F700C000008FEFBCDC882E12
S11307D08FEC97E00197F1F700C000008FEFB3DCD6
S11307E0782EAFECB7E01197F1F700C000008FEF5F
S11307F0AADCA82EEFECF7E03197F1F700C0000077
S11308008FEFA1DC982E8FEC97E00197F1F700C0F1
S113081000008FEF98DCC82EAFECB7E01197F1F72A
S113082000C000008FEF8FDCB82EEFECF7E03197BB
S1130830F1F700C000008FEF86DC482E8FEC97E0C4
S11308400197F1F700C000008FEF7DDCD82EAFECEC
S1130850B7E01197F1F700C000008FEF74DC282E89
S1130860EFECF7E03197F1F700C000008FEF6BDC9D
S1130870382E8FEC97E00197F1F700C000008091CB
S11308800F019091100160910D0170910E01EED352
S1130890892B19F48CE191E0DDD38BEB8BBB809138
S11308A00F019091100160910D0170910E01DED342
S11308B0892B51F5852D90E0982F8827860D911D61
S11308C047DC872D90E0982F8827880D911D40DC08
S11308D0892D90E0982F88278A0D911D39DC8B2D66
S11308E090E0982F88278C0D911D32DC8D2D90E09F
S11308F0982F8827840D911D2BDC832D90E0982F51
S11309008827820D911D24DCC59AC09880910F011F
S11309109091100160910D0170910E01A7D3892B64
S113092031F480E58FD382E58DD382E48BD380E2EA
S113093091E0E6DB87E291E0E3DBF89487D3482F8C
S11309408093AF0180910F019091100160910D018E
S113095070910E018BD3892B11F4842F73D3789467
S113096080910F019091100160910D0170910E0121
S11309707DD3892B31F480E565D382E563D384E4A8
S113098061D38DE291E0BCDB88E10FB6F89481BDC0
S113099011BC0FBE9FEFA3EDB0E39150A040B04057
S11309A0E1F700C0000086C2019709F074C280918B
S11309B0390190913A01019729F0809134018130F5
S11309C009F069C2C59AC0988FE00FB6F894A8954B
S11309D0E1BC0FBE81BDA8958AEA8BBBC8DB80EC65
S11309E08BBB80911701D2DB80E68BBB8091150114
S11309F0F0DB80EA8BBB1EDC80910F01909110012B
S1130A0060910D0170910E0131D3892B19F488E1A5
S1130A1091E020D3EFE1FEE43197F1F700C000004C
S1130A206801A5DB9091160180911701890FC0DB45
S1130A30E1DB8091AD01D6018D936D01FBDBCC161A
S1130A40DD0679F7EFE1FEE43197F1F700C000002D
S1130A50A895C09AC5988FEC97E00197F1F700C06C
S1130A6000008FEF70DBAFECB7E01197F1F700C037
S1130A7000008FEF8BBB67DB682EEFECF7E031975C
S1130A80F1F700C000008FEF5EDB582E8FEC97E08B
S1130A900197F1F700C000008FEF55DB882EAFEC13
S1130AA0B7E01197F1F700C000008FEF4CDB782E10
S1130AB0EFECF7E03197F1F700C000008FEF43DB74
S1130AC0A82E8FEC97E00197F1F700C000008FEF9C
S1130AD03ADB982EAFECB7E01197F1F700C00000B5
S1130AE08FEF31DBC82EEFECF7E03197F1F700C060
S1130AF000008FEF28DBB82E8FEC97E00197F1F719
S1130B0000C000008FEF1FDB482EAFECB7E0119759
S1130B10F1F700C000008FEF16DBD82EEFECF7E002
S1130B203197F1F700C000008FEF0DDB282E8FEC1A
S1130B3097E00197F1F700C000008FEF04DB382E37
S1130B40AFECB7E01197F1F700C0000080910F01FE
S1130B509091100160910D0170910E0187D2892B43
S1130B6019F48CE191E076D28BEB8BBB80910F0171
S1130B709091100160910D0170910E0177D2892B33
S1130B8051F5852D90E0982F8827860D911DE0DA88
S1130B90872D90E0982F8827880D911DD9DA892D0B
S1130BA090E0982F88278A0D911DD2DA8B2D90E042
S1130BB0982F88278C0D911DCBDA8D2D90E0982FDE
S1130BC08827840D911DC4DA832D90E0982F8827FF
S1130BD0820D911DBDDAC59AC098A89580910F0128
S1130BE09091100160910D0170910E013FD2892BFB
S1130BF031F480E527D282E525D282E423D2F89429
S1130C0025D2482F8093AF0180910F01909110015C
S1130C1060910D0170910E0129D2892B11F4842F5A
S1130C2011D27894A89580910F0190911001609150
S1130C300D0170910E011AD2892B31F480E502D294
S1130C4082E500D284E4FED18DE291E059DA80910C
S1130C503B0190913C01892BB1F480911501806195
S1130C6080931501A8958AEA8BBB81DA80EC8BBB53
S1130C70809117018BDA80E68BBB80911501A9DA8C
S1130C8080EA8BBBD7DA80913B0190913C010197BC
S1130C9071F58091390190913A01019791F483E0C3
S1130CA090E031EF2FEF3FB9779BFECF2BBBEFECFA
S1130CB0F7E03197F1F700C000000197009799F72A
S1130CC016C080913401813009F043C083E090E084
S1130CD02FEFF1EBFFB9779BFECF2BBBAFECB7E067
S1130CE01197F1F700C000000197009791F78091E8
S1130CF03B0190913C018230910558F12091130100
S1130D00309114012E5F3F4F8217930710F5F801BD
S1130D109FEF81918FB9779BFECF9BBBAFECB7E080
S1130D201197F1F700C00000CE17DF0791F7E0E05C
S1130D30F1E09FEF81918FB9779BFECF9BBBAFEC26
S1130D40B7E01197F1F700C00000B1E0EC30FB0709
S1130D5089F720911301309114012E5F3F4F809148
S1130D603B0190913C012817390789F483E090E016
S1130D702FEFE1EEEFB9779BFECF2BBBAFECB7E0E3
S1130D801197F1F700C000000197009791F72091A7
S1130D901301309114012D5F3F4F80913B019091DD
S1130DA03C0128173907B1F4809115018F7E8260C8
S1130DB0809315018AEA8BBBDAD980EC8BBB8091D6
S1130DC01701E4D980E68BBB8091150102DA80EA31
S1130DD08BBB30DA20911301309114018091110101
S1130DE090911201280F391F2C5F3F4F80913B01D6
S1130DF090913C012817390759F5A8958091150160
S1130E008D7E809315018AEA8BBBB1D980EC8BBBB4
S1130E1080911701BBD980E68BBB80911501D9D98C
S1130E2080EA8BBB07DA83E090E02FEFB1EDBFB926
S1130E30779BFECF2BBBEFECF7E03197F1F700C0C7
S1130E4000000197009791F710923E0110923D0126
S1130E5088E10FB6F89481BD11BC0FBE80913B01AF
S1130E6090913C01019690933C0180933B018091C9
S1130E703D0190913E01892B21F410923C01109286
S1130E803B01FFEF23ED30E3F15020403040E1F728
S1130E9000C000000FC010923E0110923D0187E790
S1130EA08BBB8FEF99E6A8E181509040A040E1F719
S1130EB000C000008091370190913801019749F5F5
S1130EC02091350130913601C90101969093360184
S1130ED0809335018F30910510F4B5D91AC0A9015A
S1130EE04E5051094F30510510F4C4D912C02D5140
S1130EF031092F30310510F4D4D90BC08D9748F047
S1130F001092380110923701E3D9109236011092F1
S1130F10350180910F019091100101969093100179
S1130F2080930F0179D0F7CA84B3886384BB82B1FC
S1130F30886382B9ABE8B0E01C92EAE8F0E0108282
S1130F4010928C008C918A6A8C9380818161808359
S1130F508FEF9FEF9093810080938000E4E8F0E0AE
S1130F6011821082118210821182108285B3877CD3
S1130F7085BB089580919401882311F0AD9A01C036
S1130F80AD9880919501882311F0AC9A01C0AC987A
S1130F9080919601882311F0AB9A01C0AB9880919F
S1130FA08E0190918F0190938700809386008091A9
S1130FB09001909191019093850080938400809199
S1130FC092019091930190938300809382000895FD
S1130FD010928F0110928E01109291011092900143
S1130FE01092930110929201109294011092950123
S1130FF010929601BFCF089586B7806186BF1EBC4C
S11310001DBC1CBC88E09DE39BBD8ABD1FBC85E064
S11310108EBD10927A00089506B604FEFDCFECCF83
S113102008951BB81AB8E5E9F0E01082599A8AB11C
S113103088698AB980818E60808387E689B9109235
S1131040900008955D9BFECF8CB908955F9BFECF01
S11310508CB10895FC012081222339F031965D9BE7
S1131060FECF2CB921912111FACF0895AA1BBB1BE5
S113107051E107C0AA1FBB1FA617B70710F0A61B94
S1131080B70B881F991F5A95A9F780959095BC01B5
S10B1090CD010895F894FFCF8F
S113109849616D556E646566696E65640005000195
S11310A8001E003C00FC01205052410050524300F5
S11310B82A303057450D002A3030420D002A30308E
S10710C8500D0000C3
S9030000FC
