S01B0000506F7765725F436F64655F426F6172645F76342E73726563D2
S11300000C9473000C943D020C9490000C9490009A
S11300100C9490000C9490000C9490000C9490001C
S11300200C9490000C9490000C9490000C9490000C
S11300300C9490000C9462020C9490000C94900028
S11300400C9490000C9490000C9490000C94CF01AC
S11300500C949000EE0129022902290229022902A6
S113006029022902EE012902290229022902290270
S113007029022902EE012902290229022902290260
S113008029022902EE012902290229022902290250
S11300902902290218022902290229022902290215
S11300A029022902290229022902290229022902F4
S11300B029022902180229022902290229022902F5
S11300C029022902290229022902290229022902D4
S11300D029022902260229022902290229022902C7
S11300E029022902F20111241FBECFE5D8E0DEBFA8
S11300F0CDBF10E0A0E6B0E0EEEEF7E002C0059060
S11301000D92A637B107D9F720E0A6E7B0E001C009
S11301101D92A139B207E1F70E9488020C94F503FD
S11301200C9400001BB81AB810BC599A549A80B5A4
S1130130866080BD87E689B910BC08955F9BFECFB9
S11301408CB108951F93CF93DF93CDB7DEB7649737
S11301500FB6F894DEBF0FBECDBF8CB18B3601F560
S113016010E008C0E1E0F0E0EC0FFD1FE10FF11D2D
S113017080831F5F0E949E008D36A1F7E1E0F0E0CE
S1130180EC0FFD1FE10FF11D108260E670E0CE015F
S113019001960E94DB0321E0892B31F520E024C085
S11301A08237F9F410E008C0E1E0F0E0EC0FFD1F45
S11301B0E10FF11D80831F5F0E949E008D36A1F721
S11301C0E1E0F0E0EC0FFD1FE10FF11D10826AE6A3
S11301D070E0CE0101960E94DB03892B21F022E01E
S11301E003C020E001C020E0822F64960FB6F8948B
S11301F0DEBF0FBECDBFDF91CF911F91089580EC7C
S11302008BBB18BA15BA82BB1092880008958091EE
S1130210770090917800019751F480EC8BBB81E0DA
S113022088BB15BA80E882BB8093880008950E9439
S1130230FF0010928800089580918F0090919000A3
S113024087FF09C0C09A969881E090E09093780067
S11302508093770006C0C098969A10927800109206
S1130260770080918F009091900086FF03C0949A4C
S1130270979802C09498979A80918F0090919000DB
S113028085FF03C0AF9ADE9802C0AF98DE9A8091D2
S11302908F009091900084FF03C0C29A969801C089
S11302A0C29880918F009091900083FF03C0AA9A16
S11302B0DF9802C0AA98DF9A80918F0090919000F5
S11302C082FF02C0C39A01C0C39880918F009091AD
S11302D0900081FF02C0AE9A01C0AE9880918F0059
S11302E0909190008093880008958330910549F19E
S11302F034F48130910549F00297A9F04CC0843060
S1130300910569F10597C9F146C081E687B985EC85
S113031086B98FE19EE40197F1F700C00000369999
S1130320FECF85B1089583E687B985EC86B98FE160
S11303309EE40197F1F700C000003699FECF85B125
S1130340089584E687B985EC86B98FE19EE4019728
S1130350F1F700C000003699FECF85B1089580E61C
S113036087B985EC86B98FE19EE40197F1F700C067
S113037000003699FECF85B1089582E687B985ECF1
S113038086B98FE19EE40197F1F700C00000369929
S1130390FECF85B108950895AA9ADF9808951F9213
S11303A00F920FB60F9211242F933F934F935F93A5
S11303B06F937F938F939F93AF93BF93EF93FF9329
S11303C081B1887F90E0FC01E056F109E934F10540
S11303D008F03FC0E65DFF4F0C94D50386B7806CF0
S11303E086BF37C0E0917600F0E0E857FF4F808188
S11303F083B986B7846C86BF809176008F5F8093C3
S1130400760080917600873021F5109276008091F5
S11304107D0090917E0018161906DCF480917D0011
S113042090917E00019690937E0080937D0011C090
S113043083B190E09093900080938F000E941C0100
S11304401092760086B7806C86BF03C086B7856C31
S113045086BF86B7856C86BFFF91EF91BF91AF9140
S11304609F918F917F916F915F914F913F912F91C8
S11304700F900FBE0F901F9018951F920F920FB6FA
S11304800F9211242F933F934F938F939F938BB786
S11304908F7B8BBF8AE090E02FEF39E648E1215053
S11304A030404040E1F700C0000001970097A1F7F9
S11304B09F918F914F913F912F910F900FBE0F906D
S11304C01F9018951F920F920FB60F9211242F931D
S11304D03F934F935F936F937F938F939F93AF93C8
S11304E0BF93EF93FF930E94A20080937F00FF913C
S11304F0EF91BF91AF919F918F917F916F915F9198
S11305004F913F912F910F900FBE0F901F90189510
S113051080EC8ABB87B38D6087BB84B3846C84BB57
S113052081B3806D81BB0E94920087E689B9579A96
S113053080E282B986B7856C86BF0E94FF0080E4A2
S11305408BBF85B78F78806285BF80EA85BF78943A
S113055085B7806885BF85B7806885BF889585B76E
S11305608F7785BF85B78F7785BF2FEF80E792E0C0
S1130570215080409040E1F700C000008BB78F7B92
S11305808BBF0E94CC01EFEFF9E628E1E150F04087
S11305902040E1F700C0000001E010E00F2EFEE86B
S11305A0EF2EF0E0FF2EF02DC9E8D0E00F2EF8E892
S11305B0AF2EF0E0BF2EF02D0F2EFAE8CF2EF0E094
S11305C0DF2EF02D0F2EFBE86F2EF0E07F2EF02DA6
S11305D00F2EFCE84F2EF0E05F2EF02D0F2EFDE8DD
S11305E02F2EF0E03F2EF02D80917F00813021F4FA
S11305F00E94FF00F894F8CF80917F00823009F0C8
S1130600D2C0F50110821882F6011082F301108223
S1130610F2011082F101108210937E0000937D009C
S113062080917D0090917E000797D1F7FFEF29E636
S113063088E1F15020408040E1F700C00000F894C8
S11306400E94FF0010927E0010927D009FEFE1E176
S1130650FAE79150E040F040E1F700C000000E944A
S1130660CC012FEF81E19AE7215080409040E1F7DF
S113067000C0000010927F00789495C0C4010E94CD
S11306807501F401E857FF4F8083EFEF8E1A9E0A3D
S1130690F6E08F16910491F780B3887080938200FE
S11306A046B342704093850030B33072309380007B
S11306B023B328702093870093B39071909386009E
S11306C04295440F440F407C330F342B232B990F56
S11306D0292B880F822BF7018083808183FD03C03F
S11306E0AA98DF9A02C0AA9ADF98C8010E947501ED
S11306F080938300888388818881823AC8F48881C2
S11307008439B0F080917B0090917C00892B81F436
S11307108091790090917A00892B51F410937C0098
S113072000937B0010927A00109279000E940701D6
S11307308881833950F410937C0000937B001093DC
S11307407A00009379000E94FF00809179009091D3
S11307507A00019749F488818D3A30F010927A003A
S1130760109279000E94070180917B0090917C0097
S1130770019789F48881873C08F4B7CF10927C00F4
S113078010927B000E94CC0180917B0090917C00B0
S1130790019709F4AACF8091790090917A0001978A
S11307A009F4A3CF21CF480169CFEE0FFF1F0590B5
S11307B0F491E02D0994FB0151915523A9F0BF0157
S11307C0DC014D9145174111E1F759F4CD01019038
S11307D0002049F04D9140154111C9F3FB0141112D
S11107E0EFCF81E090E001970895F894FFCFE9
S11307EE696C6C70726174686100657365747072A3
S10907FE61746861000053
S9030000FC
