S01100004D61737465724F42432E73726563D3
S113000045C0000060C000005EC000005CC000008D
S11300105AC0000058C0000056C0000054C0000080
S113002052C0000050C000004EC000004CC0000090
S11300304AC0000048C0000046C0000044C00000A0
S113004042C0000040C00000ACC100003CC0000041
S11300503AC0000038C0000036C0000034C00000C0
S113006032C0000030C000002EC000002CC00000D0
S11300702AC0000028C0000043C0000024C00000C3
S113008022C0000020C000001EC0000011241FBEBA
S1130090CFEFD0E1DEBFCDBF11E0A0E0B1E0EEEEE6
S11300A0F9E000E00BBF02C007900D92AE30B1073B
S11300B0D9F721E0AEE0B1E001C01D92A53AB20744
S11300C0E1F7CAD192C49CCFCF93DF93CBE9D0E0C0
S11300D01882AAE9B0E01C92EDE9F0E01082888170
S11300E0826088838C9188698C9380818E60808300
S11300F087E68093990010929800DF91CF9108953C
S11301001F920F920FB60F9211240BB60F922F93DA
S11301103F934F935F936F937F938F939F93AF938B
S1130120BF93EF93FF938091140190919C00E82F6B
S1130130F0E0ED5DFE4F90838F5F873019F0809380
S113014014019BC0109214018091230190E0982F18
S1130150882790931301809312018091120190914A
S11301601301882790931301809312018091120147
S11301709091130120912401822B90931301809379
S113018012018091250190E0982F88279093110106
S11301908093100180911001909111018827909310
S11301A0110180931001809110019091110120910F
S11301B02601822B909311018093100180912701D5
S11301C090E0982F882790930F0180930E018091DF
S11301D00E0190910F01882790930F0180930E01D7
S11301E080910E0190910F0120912801822B909310
S11301F00F0180930E016091120170911301882701
S113020077FD8095982F51D320E030E64AE656E4F6
S1130210E2D260937F017093800180938101909377
S113022082016091100170911101882777FD8095FA
S1130230982F3BD320E030E64AE656E4CCD26093D4
S1130240830170938401809385019093860160916A
S11302500E0170910F01882777FD8095982F25D383
S113026020E030E64AE656E4B6D260938701709304
S113027088018093890190938A01FF91EF91BF9146
S1130280AF919F918F917F916F915F914F913F912A
S11302902F910F900BBE0F900FBE0F901F901895CB
S11302A017BA86E087BB87B3816387BB88B3806353
S11302B088BBC0988FE58DB9089510927100109293
S11302C074008CE080937000089584EA8093740035
S11302D0E4E7F0E080818823ECF7E1E7F0E0808157
S11302E0887F8830E1F708958093730084E88093D1
S11302F07400A4E7B0E0E1E7F0E004C08081887F07
S11303008831E1F78C918823CCF7089580937300AA
S113031084E880937400E4E7F0E080818823ECF7BC
S1130320E1E7F0E08081887F8034E1F708958093ED
S1130330730084E880937400E4E7F0E0808188230C
S1130340ECF7E1E7F0E08081887F8832E1F70895F7
S113035084E880937400E4E7F0E080818823ECF77C
S1130360E1E7F0E08081887F8835E1F72091730030
S113037020939B01809102019091030160910001FF
S1130380709101011ED3892B11F4822F14C2089598
S113039084E980937400E4E7F0E0808184FFFDCF7A
S11303A008951F920F920FB60F9211242F938F93DB
S11303B09F938CB180939C0180919C018A32D9F4E3
S11303C081E18BBB2FEF81E19AE72150804090407F
S11303D0E1F700C0000081E090E090931801809361
S11303E017018091040190910501019790931A01DE
S11303F08093190129C080919C01863281F48CEC90
S11304008BBB2FEF81E19AE7215080409040E1F7C8
S113041000C00000109218011092170115C08091BD
S11304209C018E3589F48EEE8BBB2FEF81E19AE728
S1130430215080409040E1F700C0000081E090E04E
S113044090931601809315019F918F912F910F9096
S11304500FBE0F901F90189523DF9CD135DE74D109
S113046080EF8ABB87B3816287BB2FEF83ED90E374
S1130470215080409040E1F700C0000080ED8BBB2C
S11304801CDFEFEFF3ED20E3E150F0402040E1F713
S113049000C0000078940F2EF8E18F2E912CF02DDF
S11304A00F2EFFE02F2EF02D0F2EFAEA3F2EF02D07
S11304B00F2EF0EC4F2EF02D0F2EF0E65F2EF02DC8
S11304C00F2EF0EA6F2EF02D05EA11E00F2EFEE953
S11304D0CF2EF1E0DF2EF02D77247A940F2EF4EA5C
S11304E0EF2EF1E0FF2EF02DAA24A394B12C0FB629
S11304F0F894A89581BC0FBE21BCA895C59AC09854
S1130500809106018D7E809306013BBADEDE4BBAF4
S113051080910801E9DE5BBA8091060108DF6BBABD
S113052037DF809102019091030160910001709185
S1130530010147D2892B19F489E091E040D18FE180
S11305409EE40197F1F700C00000E601BEDE909141
S1130550070180910801890FD9DEFADE80919B01A1
S1130560899316DFC017D10789F7EFE1FEE43197CD
S1130570F1F700C00000F60181918FB9779BFECF9F
S11305807BBA8FEC97E00197F1F700C000000E17DB
S11305901F0791F7C09AC598A89580912101909161
S11305A02201892B69F4F701808188233CF1B09200
S11305B02201A0922101809106018F778093060188
S11305C080912101909122019C0121503109263012
S11305D0310528F4019690932201809321018091A2
S11305E0210190912201079749F41092220110925F
S11305F021018091060180688093060180911F018A
S113060090912001892B69F4F701808186FD27C030
S1130610B0922001A0921F01809106018F7B8093EC
S1130620060180911F01909120019C012150310904
S11306302630310528F401969093200180931F0100
S113064080911F0190912001079749F41092200195
S113065010921F01809106018064809306018091AD
S11306601D0190911E01892B69F4F701808185FD9C
S113067027C0B0921E01A0921D01809106018F7DBA
S11306808093060180911D0190911E019C012150CF
S113069031092630310528F4019690931E01809388
S11306A01D0180911D0190911E01079749F410923C
S11306B01E0110921D018091060180628093060143
S11306C080911B0190911C01892B69F4F7018081B1
S11306D084FD27C0B0921C01A0921B0180910601E9
S11306E08F7E8093060180911B0190911C019C01D7
S11306F0215031092630310528F4019690931C01CC
S113070080931B0180911B0190911C01079749F470
S113071010921C0110921B0180910601806180934C
S11307200601A895C09AC598F8E10FB6F894F1BDF2
S113073011BC0FBE80910201909103010196909328
S1130740030180930201D3CE84B3886384BB82B156
S1130750886382B9ABE8B0E01C92EAE8F0E010826A
S113076010928C008C918A6A8C9380818161808341
S11307708FEF9FEF9093810080938000E4E8F0E096
S113078011821082118210821182108285B3877CBB
S113079085BB08951BB81AB8E5E9F0E01082599AB0
S11307A08AB188618AB980818E60808387E689B93D
S11307B01092900008955D9BFECF8CB90895FC01C2
S11307C02081222339F031965D9BFECF2CB92191F3
S11307D02111FACF08950CD0BAC0B2D040F0A9D0FC
S11307E030F021F45F3F19F09BC05111E4C09EC06A
S11307F0BFD098F39923C9F35523B1F3951B550B37
S1130800BB27AA2762177307840738F09F5F5F4FDF
S1130810220F331F441FAA1FA9F333D00E2E3AF020
S1130820E0E830D091505040E695001CCAF729D03A
S1130830FE2F27D0660F771F881FBB1F2617370789
S11308404807AB07B0E809F0BB0B802DBF01FF27B9
S113085093585F4F2AF09E3F510568F061C0ABC0CA
S11308605F3FECF3983EDCF3869577956795B795F3
S1130870F7959F5FC9F7880F911D9695879597F90E
S11308800895E1E0660F771F881FBB1F6217730787
S11308908407BA0720F0621B730B840BBA0BEE1F9C
S11308A088F7E0950895E89409C097FB3EF4909585
S11308B08095709561957F4F8F4F9F4F9923A9F035
S11308C0F92F96E9BB279395F695879577956795C4
S11308D0B795F111F8CFFAF4BB0F11F460FF1BC008
S11308E06F5F7F4F8F4F9F4F16C0882311F096E99B
S11308F011C0772321F09EE8872F762F05C0662349
S113090071F096E8862F70E060E02AF09A95660F01
S1130910771F881FDAF7880F9695879597F90895BA
S113092097F99F6780E870E060E008959FEF80EC9E
S1130930089500240A941616170618060906089541
S113094000240A9412161306140605060895092EA7
S11309500394000C11F4882352F0BB0F40F4BF2B16
S113096011F460FF04C06F5F7F4F8F4F9F4F089556
S113097057FD9058440F551F59F05F3F71F047954C
S1130980880F97FB991F61F09F3F79F08795089531
S1130990121613061406551FF2CF4695F1DF08C050
S11309A0161617061806991FF1CF8695710561056D
S11309B008940895E894BB2766277727CB0197F915
S11309C00895AA1BBB1B51E107C0AA1FBB1FA61792
S11309D0B70710F0A61BB70B881F991F5A95A9F7E4
S11109E080959095BC01CD010895F894FFCF49
S11109EE050001004605FC01205052410000A6
S9030000FC
